:03000000020026D5
:0C002600787FE4F6D8FD75812002006DA3
:10022A00010800C10002090000020B000AC101C155
:01023A0002C1
:10019800D3EF9400EE940040147D6E7C00ED1D704A
:0D01A800011CED4C70F7EF1F70E61E80E3A8
:0101B5002227
:1001EA00438920758DFD758BFDD28E759850D2AFDF
:0701FA00D2ACC299C29822A9
:10000E005389F0438901758CFF758AD2D2A9D2AF7C
:03001E00D28C225F
:03000B00020138B7
:10013800C0E0C0D0758CFF758AD2050AE50A700246
:100148000509D3950CE509950B5004D2958002C298
:1001580095C3E50A9490E50994014008750900756E
:090168000A00D295D0D0D0E0329B
:10021800A2AC9204C2AC8F993099FDC299A2049203
:01022800AC29
:0102290022B2
:030023000202686E
:0B026800309807C298859908D2003238
:10023C00308309308506308603208702D322C322FF
:1000F60012023C9203A203300201B3500C7F327EFF
:100106000012019812023C9203A203300201B3507E
:1001160020A203920230030C200109D2011200032F
:100126007F46800A20030A300107C2017F4E120271
:0101360018B0
:0101370022A5
:07000300C280C281C282220B
:10020100D280D281C2827FE87E031201981200035C
:070211007FE87E0302019863
:10024C00D280C281D2827FE87E0312019802000321
:1001B600BF52037F0822BF48037F1322BF4B037F32
:0B01C6001D22BF4F037F24227F0A226E
:06027300750B008F0C2248
:0C025C00750B008F0CAF05AE040201987A
:100171001201B67DF47C0112025C7F2C7E0112011A
:10018100981202017DF47C017F0A12025C7FC87E15
:070191000012019802024C6C
:1000B200300040C200AF08EF64466037EF644E6024
:1000C20032EF6444602DEF64456028EF6452600DA6
:1000D200EF64486008EF644B6003BF4F11300107C3
:1000E2001200037F4680091201717F4480027F451E
:0300F200120218DF
:0100F50022E8
:1001D10012000E1201EAD295C280C20112023C92B3
:0901E100021200F61200B280F8CF
:100032000201D1E493A3F8E493A34003F68001F212
:1000420008DFF48029E493A3F85407240CC8C333CF
:10005200C4540F4420C8834004F456800146F6DF9E
:10006200E4800B010204081020408090022AE47E02
:10007200019360BCA3FF543F30E509541FFEE49393
:10008200A360010ECF54C025E060A840B8E493A35A
:10009200FAE493A3F8E493A3C8C582C8CAC583CA85
:1000A200F0A3C8C582C8CAC583CADFE9DEE780BE3D
:01023B0000C2
:00000001FF
